:020000040800F2
:10000000080402200D020008650F00080D0F00080B
:10001000610F00085502000865110008000000008B
:100020000000000000000000000000004110000877
:10003000C102000800000000A10F000843100008E2
:1000400027020008270200082702000827020008EC
:1000500027020008270200082702000827020008DC
:1000600027020008270200082702000827020008CC
:1000700027020008270200082702000827020008BC
:1000800027020008270200082702000827020008AC
:10009000270200082702000827020008270200089C
:1000A000270200082702000827020008270200088C
:1000B000270200082702000827020008270200087C
:1000C000270200082702000827020008270200086C
:1000D000270200082702000827020008270200085C
:1000E000270200082702000827020008270200084C
:1000F000270200082702000827020008270200083C
:10010000270200082702000827020008270200082B
:10011000270200082702000827020008270200081B
:10012000270200082702000827020008270200080B
:1001300027020008270200082702000827020008FB
:1001400027020008270200082702000827020008EB
:1001500027020008270200082702000827020008DB
:1001600027020008270200082702000827020008CB
:1001700027020008270200082702000800000000EC
:1001800027020008270200082702000827020008AB
:10019000270200082702000827020008270200089B
:1001A000270200082702000827020008270200088B
:1001B000270200082702000827020008270200087B
:1001C000270200082702000800000000270200089C
:1001D000270200082702000827020008270200085B
:1001E000270200082702000827020008270200084B
:1001F0002702000827020008DFF80CD000F018F8EA
:10020000004800478911000808040220064880477A
:1002100006480047FEE7FEE7FEE7FEE7FEE7FEE7EB
:10022000FEE7FEE7FEE7FEE701110008F90100081E
:10023000064C074D06E0E06840F0010394E8070033
:1002400098471034AC42F6D3FFF7DAFF24120008C7
:100250004412000800BFFEE710B500BF00BF00BF9A
:1002600000BF00BFBFF34F8F00BF00BF00BF00BF84
:1002700000BF00BFBFF36F8F00BF00BF00BF0020F3
:100280000D4908600D48006840F400300B490860D3
:1002900000BF00BF00BFBFF34F8F00BF00BF00BF54
:1002A00000BF00BF00BFBFF36F8F00BF00BF00BF24
:1002B00000BF00F077FE10BD50EF00E014ED00E04D
:1002C000704700BFFEE731B5002400F01FF9044677
:1002D00000BF00F01BF9001B00998842F9D338BD1C
:1002E000F8B502460B46002100250024002000BF7F
:1002F000E4E0012606FA01F51E6806EA0504AC42B0
:1003000071D15E68022E02D05E68122E13D1CF0822
:1003100002F1200656F827004E07F70E0F26BE40C2
:10032000B0434F07FF0E1E69BE403043CF0802F1B5
:10033000200646F8270010684F000326BE40B04351
:100340001E7906F003064F00BE40304310605E6821
:10035000012E08D05E68022E05D05E68112E02D0F4
:100360005E68122E13D190684F000326BE40B04342
:100370004F00DE68BE4030439060506801268E40DA
:10038000B0431E79C6F300168E4030435060D068EB
:100390004F000326BE40B0434F009E68BE4030432E
:1003A000D0605E6806F08056B6F1805FA8D100BFCD
:1003B000444E366846F48046424F3E603E463668BC
:1003C00006F48046009600BF00BF3F4E8F0856F8E7
:1003D00027008E07370F0F26BE40B0433B4EB24278
:1003E00002D100262EE068E0394EB24201D101264A
:1003F00028E0384EB24201D1022623E0364EB24206
:1004000001D103261EE0354EB24201D1042619E087
:10041000334EB24201D1052614E0324EB24201D130
:1004200006260FE0304EB24201D107260AE02F4ED9
:10043000B24201D1082605E02D4EB24201D1092673
:1004400000E00A268F073F0FBE4030431E4E8F0844
:1004500046F82700274E3068A0435E6806F48036D1
:10046000B6F5803F00D12043224E3060361D306803
:10047000A0435E6806F40036B6F5003F00D1204385
:100480001C4E361D3060361D3068A0435E6806F491
:100490008016B6F5801F00D12043164E0836306016
:1004A000361D3068A0435E6806F40016B6F5001FDE
:1004B00000D120430F4E0C363060491C1029FFF448
:1004C00018AFF8BD4438024008380140000002402F
:1004D0000004024000080240000C024000100240EC
:1004E0000014024000180240001C0240002002409C
:1004F00000240240003C014042694A40426170478A
:100500000AB1816101E00B04836170470148006812
:10051000704700000000022002480068401C0149AA
:10052000086070470000022010B50848006840F4D9
:10053000007006490860032000F0C2F80F2000F0A8
:1005400007F800F07DF8002010BD0000003C0240DC
:1005500070B50446074800684FF47A71B0FBF1F5B6
:10056000284600F0B9FC00222146501E00F069F830
:10057000002070BD040002204178154A1160017806
:10058000F9B1121D41681160017B0907C27A41EA85
:100590000261827A41EAC241427B41EA8241827B26
:1005A00041EA4241C27B41EA0241427A41EA0221E8
:1005B000027A41EA420102781143054A0832116089
:1005C00005E00021024A121D1160121D11607047E2
:1005D00098ED00E000BF00BF00BFBFF35F8F00BF1A
:1005E00000BF00BF0548006820F480300349086060
:1005F00000200249703108607047000024ED00E0DF
:1006000040F001010D4A11600C497039096841F44C
:1006100080310A4A703A116000BF00BF00BFBFF3CB
:100620004F8F00BF00BF00BF00BF00BF00BFBFF3C0
:100630006F8F00BF00BF00BF7047000094ED00E067
:1006400070472DE9F05F80460D461646002700F002
:100650008BFC074639462A46334601F00700C0F1B5
:10066000070ABAF1040F02D94FF0040A01E0C0F101
:10067000070AD14600F1040ABAF1070F02D24FF07F
:10068000000A01E0A0F1030AD4464FF0010A0AFA79
:1006900009FAAAF1010A0AEA020A0AFA0CFA4FF068
:1006A000010B0BFA0CFBABF1010B0BEA030B4AEA53
:1006B0000B042146404600F05FFCBDE8F09F0000BF
:1006C00000BF00F00702064B19684FF6FF03194000
:1006D000044B0B4343EA0221014B196000BF7047F2
:1006E0000CED00E00000FA0538B5002400BF2048FA
:1006F000006840F080501E4908600846006800F01D
:100700008050009000BF00BF1A48006840F480305D
:1007100018490860FFF7FAFE044607E0FFF7F6FE07
:10072000001BB0F57A7F01D9032038BD114840681D
:1007300000F48030B0F5803FF0D10E48006840F4FE
:1007400000300C490860FFF7E1FE044607E0FFF7C0
:10075000DDFE001BB0F57A7F01D90320E5E70548EF
:10076000406800F40030B0F5003FF0D10020DCE735
:10077000403802400070004070B504460D46002627
:100780006648006800F00F00A8420ED26348006877
:1007900020F00F002843614908600846006800F017
:1007A0000F00A84201D0012070BD207800F00200A7
:1007B000022807D15A48006820F0F000A1680843D9
:1007C00057490860207800F00100002860D0606878
:1007D000012807D1524808380068C0F34040A0B94A
:1007E0000120E1E76068022807D14D480838006819
:1007F000C0F3406048B90120D6E74948083800688E
:10080000C0F3400008B90120CEE74548006820F059
:1008100003006168084342490860FFF777FE064617
:100820006068012810D108E0FFF770FE801B41F2DC
:100830008831884201D90320B6E73948006800F0C2
:100840000C000428F0D123E06068022810D108E0F1
:10085000FFF75CFE801B41F28831884201D90320FA
:10086000A2E72F48006800F00C000828F0D10FE044
:1008700008E0FFF74BFE801B41F28831884201D926
:10088000032091E72648006800F00C000028F0D112
:100890002248006800F00F00A8420ED91F480068E7
:1008A00020F00F0028431D4908600846006800F04A
:1008B0000F00A84201D0012076E7207800F0040064
:1008C000042807D11648006820F4E050E168084386
:1008D00013490860207800F00800082808D1104863
:1008E000006820F46040216940EAC1000C490860BA
:1008F00000F01CF80A49096801F0F001F02292FAB0
:10090000A2F2B2FA82F2D140064A515CC8400649CE
:1009100008600F20FFF71CFE002045E7003C024066
:10092000083802400C1200080400022070B50021B3
:10093000002200230020274C246804F00C0424B17A
:10094000042C04D0082C41D103E0234840E0234884
:100950003EE0204C241F246804F03F011D4C241F5E
:10096000246804F4800484B11C4CB4FBF1F5194CE8
:10097000241F246847F6C076344096FAA6F6B6FAE5
:1009800086F6F44005FB04F20FE0134CB4FBF1F5DE
:10099000104C241F246847F6C076344096FAA6F619
:1009A000B6FA86F6F44005FB04F20A4C241F2468CC
:1009B00004F440344FF4403595FAA5F5B5FA85F5C1
:1009C000EC40641C6300B2FBF3F001E0024800BF9E
:1009D00000BF70BD083802400024F40000127A0005
:1009E000F8B5044600250026207800F00100002814
:1009F00071D0FD48006800F00C0004280DD0FA48C2
:100A0000006800F00C00082813D1F748001F0068A8
:100A100000F48000B0F5800F0BD1F348083800686F
:100A2000C0F34040002869D06068002866D10120EA
:100A3000F8BD00BF6068B0F5803F08D1EA480838CB
:100A4000006840F48030E849083908602EE06068AA
:100A500068B9E5480838006820F48030E249083970
:100A600008600846006820F4802008601EE0606886
:100A7000B0F5A02F0DD1DC480838006840F4802084
:100A8000D949083908600846006840F48030086099
:100A90000CE0D5480838006820F48030D249083985
:100AA00008600846006820F48020086000BF606885
:100AB00090B1FFF72BFD054606E0FFF727FD401B31
:100AC000642801D90320B3E7C74808380068C0F399
:100AD00040400028F1D011E0FFF718FD054606E080
:100AE000FFF714FD401B642801D90320A0E7BE488E
:100AF00008380068C0F340400028F1D1207800F0A9
:100B00000200022873D1B848006800F00C0058B108
:100B1000B548006800F00C00082821D1B248001F39
:100B2000006800F48000D8B9AF4808380068C0F306
:100B3000400020B1E068012801D0012078E7AA48F0
:100B40000838006820F0F800F82292FAA2F2B2FA0F
:100B500082F2216991400843A3490839086046E0C0
:100B6000E06850B3A0480838006840F001009E4992
:100B700008390860FFF7CAFC054606E0FFF7C6FC27
:100B8000401B022801D9032052E797480838006823
:100B9000C0F340000028F1D093480838006820F0E6
:100BA000F800F82292FAA2F2B2FA82F22169914098
:100BB00008438D490839086019E08B4808380068F7
:100BC00020F00100884908390860FFF79FFC0546BE
:100BD00006E0FFF79BFC401B022801D9032027E712
:100BE000814808380068C0F340000028F1D120781F
:100BF00000F00800082836D16069D0B17A486C301E
:100C0000006840F0010078496C310860FFF77EFC15
:100C1000054606E0FFF77AFC401B022801D90320B5
:100C200006E771486C300068C0F340000028F1D03E
:100C300019E06D486C30006820F001006A496C31A1
:100C40000860FFF763FC054606E0FFF75FFC401B0A
:100C5000022801D90320EBE663486C300068C0F33A
:100C600040000028F1D1207800F00400042874D15D
:100C70005D483830006800F0805080B900BF5A48A5
:100C80003830006840F080505749383108600846D5
:100C9000006800F08050009000BF00BF012653485C
:100CA000006800F48070B0B95048006840F480706B
:100CB0004E490860FFF72AFC054606E0FFF726FCD0
:100CC000401B642801D90320B2E64848006800F4BC
:100CD00080700028F2D000BFA068012808D14248E7
:100CE0006830006840F001003F49683108602DE03D
:100CF000A06868B93C486830006820F001003A49B3
:100D0000683108600846006820F0040008601DE0B3
:100D1000A06805280DD134486830006840F0040010
:100D20003149683108600846006840F001000860F9
:100D30000CE02D486830006820F001002A49683135
:100D400008600846006820F00400086000BFA06842
:100D5000A8B1FFF7DBFB054609E02EE0FFF7D6FB65
:100D6000401B41F28831884201D9032060E61E48C9
:100D700068300068C0F340000028EFD013E0FFF7B0
:100D8000C5FB054608E0FFF7C1FB401B41F2883177
:100D9000884201D903204BE6134868300068C0F34D
:100DA00040000028EFD1012E07D10F4838300068ED
:100DB00020F080500C4938310860A069F0B30A482F
:100DC000006800F00C0008287FD0A069022863D1D9
:100DD00005480838006820F0807003490839086029
:100DE000FFF794FB05460AE0083802400070004017
:100DF000FFF78CFB401B022801D9032018E6354879
:100E00000068C0F340600028F2D1D4E9070108432C
:100E100047F6C07292FAA2F2B2FA82F2616A914087
:100E200008430122A16AC2EB51014FF4403292FA09
:100E3000A2F2B2FA82F29140084300E047E04FF09C
:100E4000706292FAA2F2B2FA82F2E16A9140084329
:100E50004FF0E04292FAA2F2B2FA82F2216B914094
:100E600008431C49091D0860081F006840F0807095
:100E7000091F0860FFF74AFB054606E0FFF746FB3F
:100E8000401B022801D90320D2E512480068C0F3B4
:100E900040600028F2D01AE00E48006820F0807010
:100EA0000C490860FFF732FB054607E00DE0FFF74D
:100EB0002DFB401B022801D90320B9E50548006835
:100EC000C0F340600028F2D101E00120B0E500202D
:100ED000AEE500000038024070B504462546681EA5
:100EE000B0F1807F01D301200FE0681E4FF0E021B8
:100EF00048610F214FF0FF3000F03EF800204FF026
:100F0000E021886107200861002070BD00BFFEE776
:100F10001FB5FFF75FFB01208DF800000F4801901F
:100F200012208DF8080003208DF80B0000208DF8AA
:100F30000F0001208DF80E008DF80D0000208DF8B7
:100F400001008DF80A008DF809008DF80C00684644
:100F5000FFF712FB0420FFF753FB1FBD0000022028
:100F600000BFFEE77047000002480068C0F302209F
:100F7000704700000CED00E010B5002807DA0A0702
:100F8000140E054A00F00F031B1FD45403E00A0798
:100F9000130E024A135410BD18ED00E000E400E007
:100FA0007047000010B50023234C236000BF00BF32
:100FB00000BFBFF34F8F00BF00BF00BF231F1868E3
:100FC000C0F34E3100BFC0F3C90200BF43F6E07367
:100FD00003EA41134FF0404404EA82742343174C60
:100FE000236000BF00BF131EA2F10102EED10B1E51
:100FF000A1F10101E7D100BF00BF00BFBFF34F8FD8
:1010000000BF00BF00BF0C4B703B1B6843F4803334
:10101000094C703C236000BF00BF00BFBFF34F8F7F
:1010200000BF00BF00BF00BF00BF00BFBFF36F8F96
:1010300000BF00BF00BF10BD84ED00E060EF00E026
:10104000704710B5FFF768FA10BD000010B594B0F6
:10105000002400BF2848006840F0805026490860FE
:101060000846006800F08050019000BF00BF00BF3C
:101070002248006840F44040204908600846006863
:1010800000F44040019000BF00BF01200290000426
:101090000390022008904105099119210A914FF40B
:1010A000D8710B9102210C9109210D9107210E910C
:1010B00002A8FFF795FC04460CB1FFF702F9FFF711
:1010C00013FB04460CB1FFF7FCF80F200F90022031
:1010D0001090002011904FF4A05012904FF48050C7
:1010E000139007210FA8FFF747FB04460CB1FFF749
:1010F000E8F814B010BD0000403802400070004015
:101100001448006840F470001249086012480068F2
:1011100040F001001049086000200F4908310860C4
:101120000D4800680D4908400B4908600C48091D2E
:101130000860081F006820F48020091F0860002054
:1011400005490C3108604FF00060024980390860A1
:101150007047000088ED00E000380240FFFFF6FE17
:101160001030002400BFFEE702E008C8121F08C1CB
:10117000002AFAD170477047002001E001C1121F18
:10118000002AFBD17047000086B0FFF7C1FEFFF7D1
:1011900063F8FFF7C9F9FFF759FF00BF1948006866
:1011A00040F00400174908600846006800F0040099
:1011B000009000BF00BF4FF44070019001200290EA
:1011C00003900320049001A90F48FFF789F801223A
:1011D00011020D48FFF794F9012251020A48FFF766
:1011E0008FF90DE04FF480710748FFF785F94FF450
:1011F00000710548FFF780F94FF4FA70FFF763F8C4
:10120000F0E7000030380240000802400000000013
:1012100000000000010203040607080900000000A6
:10122000010203044412000800000220080000002C
:10123000681100084C120008080002200004000099
:0C12400078110008000000000024F400F9
:04000005080001F9F5
:00000001FF
